:1000000063C00000B1C30000D6C3000085C000007B
:1000100083C0000081C000007FC000000C945B081A
:100020007BC0000079C0000077C0000075C00000F0
:1000300073C000000C94C1086FC000006DC00000C8
:10004000E1C3000069C0000094C60000C4C60000FF
:1000500063C0000061C000005FC000005DC0000020
:100060005BC0000059C00000000000080002010051
:100070000003040700000000000000000102040863
:100080001020408001020408102001020408102002
:10009000040404040404040402020202020203032E
:1000A00003030303000000002300260029000000D2
:1000B0000000250028002B0000000000240027007D
:1000C0002A00020010077C0711241FBECFEFD8E0E2
:1000D000DEBFCDBF11E0A0E0B1E0E0EAF4E102C094
:1000E00005900D92AC33B107D9F722E0ACE3B1E053
:1000F00001C01D92A337B207E1F710E0C4E6D0E0DB
:1001000004C02197FE010E94480AC236D107C9F7F0
:100110000E9424090C944E0A73CF1F93CF93DF9350
:100120001F92CDB7DEB7162F61E0812F798375D48A
:10013000812F7981972F0F90DF91CF911F91089593
:100140000895CF93C82FCB01BA010E946B098C2F61
:10015000CF91DDC3662311F061E001C060E05DC4B2
:10016000662311F061E001C060E093C4C1D421E0D6
:10017000019709F020E0822F0895FC01818192818E
:10018000A381B4810197A105B10549F48581882334
:1001900031F040E050E0BA0186899789D2CF0895C6
:1001A000BF92CF92DF92EF92FF920F931F93CF9364
:1001B000DF9300D01F92CDB7DEB7C0900A01D09078
:1001C0000B01E0900C01F0900D01A70196016091E8
:1001D0003F027091400280914102909142020E9440
:1001E0006709882341F0C0923F02D0924002E0921A
:1001F0004102F09242028BE0B9DF182FC0900E014D
:10020000D0900F01E0901001F0901101A70196012C
:1002100060913502709136028091370290913802D8
:100220000E946709882341F0C0923502D0923602BD
:10023000E0923702F09238028CE098DF082FC090ED
:100240001201D0901301E0901401F0901501A70164
:10025000960160912B0270912C0280912D02909159
:100260002E020E946709882341F0C0922B02D0928F
:100270002C02E0922D02F0922E028DE077DFB82E54
:10028000C0901601D0901701E0901801F09019016C
:1002900020E030E040E85FE3C701B6010E94670953
:1002A000811132C0C0901A01D0901B01E0901C0156
:1002B000F0901D0120E030E040E85FE3C701B601A7
:1002C0000E946709882309F47BC020E030E040E009
:1002D00050E4C701B601FBD7882309F474C020E0BD
:1002E00030E040E450E4C701B601F1D7882309F4B7
:1002F00070C020E030E040E850E4C701B601E7D725
:10030000882309F468C019C020E030E040E050E4E0
:10031000C701B601DCD7811110C0112341F00023C1
:1003200019F0B11011C057C0BB2071F049C00023B3
:1003300059F091E0B11009C007C090E0F12C0AEF2C
:1003400010E02AEF30E006C090E0F12C00E510E06C
:1003500028E730E0692F87E02A833B83998300DF19
:100360006F2D88E0FDDE9981692F89E0F9DE6F2D20
:100370008AE0F6DEB801110F880B990BDFD7AB01CD
:10038000BC0180910B0290910C02DBDE2A813B8143
:10039000B901330F880B990BD1D7AB01BC01809108
:1003A0002302909124020F900F900F90DF91CF9134
:1003B0001F910F91FF90EF90DF90CF90BF90C1CE33
:1003C00091E0F12C03C090E0FF24F39408E710E0E3
:1003D000BFCF91E0BACF91E0F12C08E710E020E523
:1003E00030E0B8CF2F923F924F925F926F927F9200
:1003F0008F929F92AF92BF92CF92DF92EF92FF9235
:100400000F931F93CF93DF9384E090E075D1109208
:10041000F4011092F301C5EFD1E086E6FE011192DE
:100420008A95E9F70AE011E0F80180819181A281C3
:10043000B38180933F0290934002A0934102B09316
:100440004202812C912C5401839480923A02909222
:100450003B02A0923C02B0923D0260E08BE07ADE6B
:10046000CC24C394C0923E021AAEF80184819581D7
:10047000A681B7818093350290933602A09337020C
:10048000B0933802109234028BAE9CAEADAEBEAECD
:1004900060E08CE05FDEC092340218AAF80180852B
:1004A0009185A285B3858EAB9FABA8AFB9AF1DAACE
:1004B00089AA9AAAABAABCAA60E08DE04BDECDAABD
:1004C000109255020AE512E0F8011082809256025D
:1004D00090925702A0925802B092590261E087E0D0
:1004E00039DEF801C08210924F0204E512E0F801F3
:1004F00010828092500290925102A0925202B092C9
:10050000530261E088E026DEF801C08210924902C1
:100510000EE412E0F801108280924A0290924B029F
:10052000A0924C02B0924D0261E089E013DEF80126
:10053000C0821092430208E412E0F8011082809217
:10054000440290924502A0924602B092470261E0B6
:100550008AE000DEF801C08292E3692E6E8223E316
:10056000722E7F8234E3232E288645E3342E39868B
:1005700056E3452E4A8667E3562E5B86F8E3FC87F2
:1005800089E38D8771E3D72EDE86E0E3EF87D88A93
:10059000D98ADA8A6B8ADC8A7D8A18821D828982EE
:1005A0009A82AB82BC82E12CF12C8701A8019701D1
:1005B00065E070E080E090E0B0DD9F8B8E8BC0DD69
:1005C000CD826E8E7F8E28A239A24AA25BA2F8E36A
:1005D000FCA389E38DA3DEA2E0E3EFA3D8A6D9A60E
:1005E000DAA66BA6DCA67DA6188E1D8E898E9A8E45
:1005F000AB8EBC8EA801970166E070E080E090E0D1
:100600008CDD9FA78EA79CDDCD8EDF91CF911F91B2
:100610000F91FF90EF90DF90CF90BF90AF909F90A1
:100620008F907F906F905F904F903F902F900895A4
:1006300080913902811103C081E080933902809159
:100640002F02811103C081E080932F028091250247
:10065000811103C081E080932502809155028111B0
:1006600003C081E08093550280914F02811103C045
:1006700081E080934F0280914902811103C081E0A3
:100680008093490280914302811103C081E08093ED
:1006900043028091F501811106C081E08093F5014C
:1006A00085EF91E06ADD80910D02811106C081E045
:1006B00080930D028DE092E060CD089560E070E0DF
:1006C00080E89FE7089560E070E080E89FE7089584
:1006D00060E070E080E89FEF089560E070E080E8FF
:1006E0009FEF089560E070E080EC9FEF089560E078
:1006F00070E080EC9FEF0895F5DF609367027093E0
:1007000068028093690290936A02F1DF60935B0252
:1007100070935C0280935D0290935E02CFDF6093E2
:100720006302709364028093650290936602CBDF4C
:1007300060935F0270936002809361029093620203
:10074000C7DF60936B0270936C0280936D0290938D
:100750006E02C3DF60936F02709370028093710228
:1007600090937202089508951F920F920FB60F9200
:1007700011242F933F934F935F936F937F938F93A6
:100780009F93AF93BF93EF93FF93E0911E01F0917E
:100790001F010995FF91EF91BF91AF919F918F91AB
:1007A0007F916F915F914F913F912F910F900FBE6D
:1007B0000F901F9018951F920F920FB60F92112451
:1007C0002F933F934F935F936F937F938F939F9359
:1007D000AF93BF93EF93FF93E0912001F09121013C
:1007E0000995FF91EF91BF91AF919F918F917F916B
:1007F0006F915F914F913F912F910F900FBE0F908E
:100800001F9018951F920F920FB60F9211242F93DD
:100810003F938F939F93AF93BF9380913D019091AE
:100820003E01A0913F01B091400130913C0123E095
:10083000230F2D3720F40196A11DB11D05C026E818
:10084000230F0296A11DB11D20933C0180933D0111
:1008500090933E01A0933F01B093400180914101EC
:1008600090914201A0914301B09144010196A11DD4
:10087000B11D8093410190934201A0934301B09335
:100880004401BF91AF919F918F913F912F910F9014
:100890000FBE0F901F901895789484B5826084BD28
:1008A00084B5816084BD85B5826085BD85B5816074
:1008B00085BDEEE6F0E0808181608083E1E8F0E0D4
:1008C0001082808182608083808181608083E0E803
:1008D000F0E0808181608083E1EBF0E080818460E2
:1008E0008083E0EBF0E0808181608083EAE7F0E0E4
:1008F0008081846080838081826080838081816048
:1009000080838081806880831092C10008951F9346
:10091000CF93DF93182FEB0161E07FD0209711F484
:1009200060E004C0CF3FD10531F461E0812FDF9159
:10093000CF911F91AEC0E12FF0E0E859FF4FE49155
:10094000E330F9F048F4E130B9F0E230A1F584B5D4
:10095000806284BDC8BD34C0E730E9F0E83019F1E9
:10096000E43049F580918000806280938000D093CC
:100970008B00C0938A0024C084B5806884BDC7BD45
:100980001FC080918000806880938000D093890090
:10099000C093880015C08091B00080688093B0003B
:1009A000C093B3000DC08091B00080628093B0000E
:1009B000C093B40005C0C038D1050CF0B6CFB0CF9D
:1009C000DF91CF911F910895833081F028F4813019
:1009D00099F08230A1F008958730A9F08830B9F0FD
:1009E0008430D1F4809180008F7D03C0809180009D
:1009F0008F7780938000089584B58F7702C084B587
:100A00008F7D84BD08958091B0008F7703C0809161
:100A1000B0008F7D8093B0000895CF93DF9390E076
:100A2000FC01E458FF4F2491FC01E057FF4F8491F3
:100A3000882361F190E0880F991FFC01E854FF4F73
:100A4000C591D491FC01E255FF4FA591B49161117C
:100A500009C09FB7F8948881209582238883EC9100
:100A60002E230BC0623061F49FB7F8943881822F37
:100A7000809583238883EC912E2B2C939FBF06C0F7
:100A80008FB7F894E8812E2B28838FBFDF91CF9109
:100A900008951F93CF93DF93282F30E0F901E85991
:100AA000FF4F8491F901E458FF4FD491F901E057C9
:100AB000FF4FC491CC23C1F0162F811185DFEC2F9D
:100AC000F0E0EE0FFF1FE255FF4FA591B4918FB7F5
:100AD000F894111105C09C91ED2FE095E92302C017
:100AE000EC91ED2BEC938FBFDF91CF911F91089587
:100AF000CF93DF93282F30E0F901E859FF4F84911D
:100B0000F901E458FF4FD491F901E057FF4FC49128
:100B1000CC2389F0811158DFEC2FF0E0EE0FFF1F9E
:100B2000EC55FF4FA591B491EC91ED2381E090E05D
:100B300021F480E002C080E090E0DF91CF91089541
:100B4000FC01918D228D892F90E0805C9F4F821B4C
:100B500091098F7399270895FC01918D828D9817C3
:100B600031F0828DE80FF11D858D90E008958FEFB3
:100B70009FEF0895FC01918D828D981761F0828D11
:100B8000DF01A80FB11D5D968C91928D9F5F9F73C1
:100B9000928F90E008958FEF9FEF0895FC01848D70
:100BA000DF01A80FB11DA35ABF4F2C91848D90E097
:100BB00001968F739927848FA689B7892C93A08972
:100BC000B1898C9180648C93938D848D981306C029
:100BD0000288F389E02D80818F7D80830895CF93F3
:100BE000DF93EC01888D8823C1F0EA89FB8980813D
:100BF00085FD05C0A889B9898C9186FD0EC00FB608
:100C000007FCF5CF808185FFF2CFA889B9898C9147
:100C100085FFEDCFCE01C2DFE8CFDF91CF91089500
:100C2000EF92FF920F931F93CF93DF93EC0181E03C
:100C3000888F9B8D8C8D981305C0E889F9898081F8
:100C400085FD23C0F62E0B8D10E00F5F1F4F0F7335
:100C50001127E02E8C8DE8120BC00FB607FCFACFDF
:100C6000E889F989808185FFF5CFCE0197DFF2CF42
:100C70008B8DFE01E80FF11DE35AFF4FF0820B8FC1
:100C8000EA89FB898081806207C0EE89FF896083E1
:100C9000E889F98980818064808381E090E0DF9138
:100CA000CF911F910F91FF90EF900895CF92DF9217
:100CB000EF92FF921F93CF93DF93EC016A017B01C8
:100CC000122FE889F98982E080834115514E610530
:100CD0007105A9F060E079E08DE390E0A70196014D
:100CE000B5D3DA01C9010197A109B109B695A79554
:100CF00097958795AC01411580E15807A0F0E889E8
:100D0000F989108260E874E88EE190E0A70196010D
:100D10009DD3BA01A9014150510961097109769524
:100D2000679557954795EC85FD855083EE85FF8542
:100D30004083188EEC89FD891083EA89FB898081C4
:100D400080618083EA89FB89808188608083EA8969
:100D5000FB89808180688083EA89FB8980818F7D1F
:100D60008083DF91CF911F91FF90EF90DF90CF9024
:100D700008951F920F920FB60F9211242F938F9305
:100D80009F93EF93FF93E0915501F091560180817D
:100D9000E0915B01F0915C0182FD12C09081809135
:100DA0005E018F5F8F7320915F01821751F0E09198
:100DB0005E01F0E0EB5BFE4F958F80935E0101C01A
:100DC0008081FF91EF919F918F912F910F900FBE96
:100DD0000F901F9018951F920F920FB60F9211242B
:100DE0002F933F934F935F936F937F938F939F9333
:100DF000AF93BF93EF93FF9385E491E0CFDEFF9134
:100E0000EF91BF91AF919F918F917F916F915F9182
:100E10004F913F912F910F900FBE0F901F901895FB
:100E2000E5E4F1E01382128288EE93E0A0E0B0E006
:100E300084839583A683B78389E291E0918380833D
:100E400085EC90E09587848784EC90E0978786878F
:100E500080EC90E0918B808B81EC90E0938B828B87
:100E600082EC90E0958B848B86EC90E0978B868B60
:100E7000118E128E138E148E08958F929F92AF92C0
:100E8000BF92CF92DF92EF92FF920F931F93CF9377
:100E9000DF937C018B016C0182E0C80ED11C4701FD
:100EA000E5E08E0E911CC0E0D0E0F60161916F018B
:100EB0004AE050E0C801C5D05C016EE2C80167D0CD
:100EC0008A0D9B1DC80FD91FC814D90471F74AE0B9
:100ED00050E0F7016581C801B4D08C0F9D1FDF91F0
:100EE000CF911F910F91FF90EF90DF90CF90BF9027
:100EF000AF909F908F900895E2EEF1E089E391E04A
:100F00009183808312821382148215820895CF9276
:100F1000DF92EF92FF920F931F93CF93DF936C01B9
:100F20007A018B01C0E0D0E0CE15DF0589F0D80151
:100F30006D918D01D601ED91FC910190F081E02D34
:100F4000C6010995892B11F47E0102C02196ECCFD0
:100F5000C701DF91CF911F910F91FF90EF90DF902C
:100F6000CF9008956115710579F0FB010190002083
:100F7000E9F73197AF01461B570BDC01ED91FC916E
:100F80000280F381E02D099480E090E00895DC0177
:100F9000ED91FC910190F081E02D09944F925F92C8
:100FA0006F927F92EF92FF920F931F93CF93DF93F5
:100FB000CDB7DEB7A1970FB6F894DEBF0FBECDBF99
:100FC0007C01FA01CB0119A2223008F42AE08E013B
:100FD0000F5D1F4F422E512C612C712CBF01A301BC
:100FE000920134D2F901CA01015011096A3014F496
:100FF000605D01C0695CD8016C93232B242B252BE9
:1010000069F7B801C701AEDFA1960FB6F894DEBF4D
:101010000FBECDBFDF91CF911F910F91FF90EF9049
:101020007F906F905F904F9008952115310541F4A6
:10103000DC01ED91FC910190F081E02D642F099489
:10104000ADCF9A01462F50E060E070E0EECF8130E6
:1010500039F018F0823051F0089510926E00089522
:1010600080916F008D7F80936F0008958091700054
:101070008D7F8093700081E08093B0008091B100FB
:10108000887F84608093B1001092B3000895CF935D
:10109000C82F809122018C1307C0E2ECF0E0E491AC
:1010A0008FEF8093220101C0EFEF8E2FD0DF60E041
:1010B0008C2FCF91EECC1F920F920FB60F9211246E
:1010C0002F933F934F935F936F937F938F939F9350
:1010D000AF93BF93EF93FF938091EB019091EC015D
:1010E000A091ED01B091EE01892B8A2B8B2B51F150
:1010F0008091E801E091E901F091EA01908189276E
:1011000080838091EB019091EC01A091ED01B09171
:10111000EE01181619061A061B06BCF48091EB01A5
:101120009091EC01A091ED01B091EE010197A10920
:10113000B1098093EB019093EC01A093ED01B09382
:10114000EE0103C080912201A2DFFF91EF91BF91D8
:10115000AF919F918F917F916F915F914F913F914F
:101160002F910F900FBE0F901F90189540E855E2F9
:1011700060E070E080E090E000C026E085E491E06F
:1011800095CD1F920F920FB60F9211242F933F937C
:101190004F935F936F937F938F939F93AF93BF937F
:1011A000EF93FF9387EF92EC9093850080938400F8
:1011B00032D0FF91EF91BF91AF919F918F917F912D
:1011C0006F915F914F913F912F910F900FBE0F90B4
:1011D0001F90189587EF92EC909385008093840080
:1011E000AFE6B0E08C918E7F8C93E0E8F0E08081F8
:1011F0008C7F8083E1E8F0E08081877E808380813E
:101200008560808380818D7F80838C9181608C93C9
:10121000089581E008958091F00191E0980F9093F6
:10122000F001882339F021E030E03093F20120937F
:10123000F10107C078940E94D000F8948091F001E9
:1012400081508093F00108950F931F93CF93DF9304
:101250001F92CDB7DEB781E089831EDB87DF009167
:10126000230110912401F80111821082BBD8B2DF52
:1012700081E0F80120813181232B09F080E089830E
:101280007894789489818823C1F081E0F8012081E5
:101290003181232B09F480E08093EF019091EF01DD
:1012A00081E0911180E089838981882311F0B1DF89
:1012B00002C080E090E08983E5CFBAD9F89480E05D
:1012C00090E00F90DF91CF911F910F91089571D011
:1012D00008F481E0089504D06894B111B1C0089574
:1012E00094D088F09F5790F0B92F9927B751A0F06C
:1012F000D1F0660F771F881F991F1AF0BA95C9F7AA
:1013000012C0B13081F09BD0B1E0089598C0672F32
:10131000782F8827B85F39F0B93FCCF38695779559
:101320006795B395D9F73EF4909580957095619542
:101330007F4F8F4F9F4F0895E89409C097FB3EF46D
:1013400090958095709561957F4F8F4F9F4F992312
:10135000A9F0F92F96E9BB279395F6958795779590
:101360006795B795F111F8CFFAF4BB0F11F460FF50
:101370001BC06F5F7F4F8F4F9F4F16C0882311F0A8
:1013800096E911C0772321F09EE8872F762F05C0BC
:10139000662371F096E8862F70E060E02AF09A9557
:1013A000660F771F881FDAF7880F9695879597F94C
:1013B0000895990F0008550FAA0BE0E8FEEF1616E6
:1013C0001706E807F907C0F012161306E407F50739
:1013D00098F0621B730B840B950B39F40A2661F0AD
:1013E000232B242B252B21F408950A2609F4A14050
:1013F000A6958FEF811D811D089557FD9058440FCC
:10140000551F59F05F3F71F04795880F97FB991F63
:1014100061F09F3F79F08795089512161306140620
:10142000551FF2CF4695F1DF08C0161617061806AD
:10143000991FF1CF86957105610508940895E89488
:10144000BB2766277727CB0197F90895A1E21A2ECB
:10145000AA1BBB1BFD010DC0AA1FBB1FEE1FFF1F58
:10146000A217B307E407F50720F0A21BB30BE40BA8
:10147000F50B661F771F881F991F1A9469F76095EF
:101480007095809590959B01AC01BD01CF010895A9
:10149000EE0FFF1F0590F491E02D0994F894FFCF13
:1014A000000073028000010000000000803F000087
:1014B000803F0000803F000000400000803FB303F9
:1014C000B303FFF3010000000010068707A005BA70
:0C14D00005AC05EF05000000003D070022
:00000001FF
